S015000066697273745F70726F6A6563742E7372656391
S11300000C9434000C943E000C943E000C943E007E
S11300100C943E000C943E000C943E000C943E0064
S11300200C943E000C943E000C943E000C943E0054
S11300300C943E000C943E000C943E000C943E0044
S11300400C943E000C943E000C943E000C943E0034
S11300500C943E000C943E000C943E000C943E0024
S11300600C943E000C943E0011241FBECFEFD8E048
S1130070DEBFCDBF0E9440000C944F000C940000E2
S11300808FEF8AB980E08BB92FEF35EA9EE02150DB
S113009030409040E1F700C000008F5FF4CFF89447
S10500A0FFCF8C
S9030000FC
